:020000040800F2
:10000000F052002029020008611B0008991900081D
:100010005D1B000831050008191E000800000000E3
:10002000000000000000000000000000E11B0008CC
:100030005D06000800000000711B0008051C000898
:10004000430200084302000843020008430200087C
:10005000430200084302000843020008430200086C
:10006000430200084302000843020008430200085C
:10007000430200084302000843020008430200084C
:10008000430200084302000843020008430200083C
:100090003505000845050008430200084302000832
:1000A00043020008DD1C0008430200084302000868
:1000B000430200084302000843020008430200080C
:1000C00043020008430200084302000843020008FC
:1000D00043020008430200084302000843020008EC
:1000E00043020008430200084302000843020008DC
:1000F00043020008430200084302000843020008CC
:1001000043020008430200084302000843020008BB
:1001100043020008430200084302000843020008AB
:10012000430200084302000843020008430200089B
:100130004302000800000000000000004302000825
:10014000430200084302000843020008430200087B
:10015000430200084302000843020008430200086B
:10016000430200084302000843020008430200085B
:1001700043020008430200080000000000000000E5
:10018000430200084302000800F002F800F03CF8C7
:100190000AA090E8000C82448344AAF10107DA45E2
:1001A00001D100F031F8AFF2090EBAE80F0013F0F8
:1001B000010F18BFFB1A43F001031847083E000067
:1001C000283E0000103A24BF78C878C1FAD85207F8
:1001D00024BF30C830C144BF04680C6070470000C1
:1001E0000023002400250026103A28BF78C1FBD840
:1001F000520728BF30C148BF0B6070471FB503F0DE
:100200007DFE1FBD10B510BD00F04FF91146FFF780
:10021000F5FF01F09BFF00F06DF903B4FFF7F2FF6B
:1002200003BC00F075F90000094880470948004701
:10023000FEE7FEE7FEE7FEE7FEE7FEE7FEE7FEE796
:10024000FEE7FEE704480549054A064B70470000F3
:10025000C91C000889010008F04C0020F052002061
:10026000F04E0020F04E002053EA020C00F06980AE
:100270002DE9F04B4FF00006002B1FBFB3FA83F5BA
:1002800003FA05F424FA05F65E4012BF1643B2FAEB
:1002900082F502FA05F4C5F120051EBF22FA05FC1D
:1002A00044EA0C04203556EA044C4FEA144418BFC3
:1002B000641C4FF000084FF00009904271EB030CF2
:1002C00039D3002919BFB1FA81F701FA07F6B0FA5C
:1002D00080F700FA07F6C7F120071EBF20FA07FCD7
:1002E00046EA0C062037B6FBF4FCA7EB0507103FE7
:1002F00007F01F0BCBF120062CFA06F60CFA0BFBCD
:1003000044BFB3460026202FA4BF5E464FF0000B2B
:100310005BEA060C08BF4FF0010B19EB0B0948EB29
:100320000608ABFB027C06FB02CC0BFB03CCC01B1C
:1003300071EB0C01C1E70B46024641464846BDE859
:10034000F08B13B5084318BF4FF0FF300146AFF3F1
:100350000080BDE81C407047032A40F2308010F056
:10036000030C00F0158011F8013BBCF1020F624450
:1003700098BF11F801CB00F8013B38BF11F8013BE1
:10038000A2F1040298BF00F801CB38BF00F8013B8E
:1003900011F0030300F05780083AC0F0088051F8CC
:1003A000043B083A51F804CBA0E80810F5E7121D09
:1003B0005CBF51F8043B40F8043BAFF30080D20728
:1003C00024BF11F8013B11F801CB48BF11F8012BF4
:1003D00024BF00F8013B00F801CB48BF00F8012B17
:1003E000704702F0FF0343EA032242EA024200F0B0
:1003F00002B84FF0000200B51346944696462039E5
:1004000022BFA0E80C50A0E80C50B1F12001BFF4CD
:10041000F7AF090728BFA0E80C5048BF0CC05DF833
:1004200004EB890028BF40F8042B08BF704748BF81
:1004300020F8022B11F0804F18BF00F8012B7047F5
:1004400070477047704710B5203AC0F00B80B1E894
:100450001850A0E81850B1E81850A0E81850203AF9
:10046000BFF4F5AF5FEA027C24BFB1E81850A0E802
:10047000185044BF18C918C0BDE810405FEA827C1C
:1004800024BF51F8043B40F8043B08BF7047D20733
:1004900028BF31F8023B48BF11F8012B28BF20F8D4
:1004A000023B48BF00F8012B7047754600F02CF85E
:1004B000AE4605006946534620F00700854618B051
:1004C00020B5FFF7BFFEBDE820404FF000064FF01B
:1004D00000074FF000084FF0000BAC46ACE8C00935
:1004E000ACE8C009ACE8C009ACE8C00921F00701DC
:1004F0008D46704710B50446AFF300802046BDE836
:100500001040FFF78ABE0000004870471800002026
:1005100001491820ABBEFEE726000200704700002C
:1005200001F06CFD01F01EFD012001F01FFEF9E756
:10053000FEE7000080B540F22430C2F2000000F077
:10054000F5F980BD80B540F22430C2F2000000F021
:10055000EDF980BD80B588B0002002210790CDE97B
:100560000500CDE90300CDE90100029104218DF8D9
:100570001C0040F224300691C2F2000002A96A4633
:1005800001AB8DED000A00F083F808B080BD0000DB
:1005900080B58AB00021020A00918DF800008DF824
:1005A0000120020C000E8DF8030045F6A520C5F6CB
:1005B000A520019040F20110C0F201200991CDE97F
:1005C0000711CDE905110590042006900820089038
:1005D00040F22430CDE903118DF802208DF824106B
:1005E000C2F2000004A96A4603AB00F051F80AB059
:1005F00080BD000082B003F05BFA9FED169A9FED7C
:1006000016AA0024B2EE04BA01AD0026B0EE498A63
:1006100001900DE038EE0A8AB4EE4B8A0026F1EE26
:1006200010FAC8BFB0EE498A2846022102F096FCB3
:100630002046FFF7ADFF01360028F0B208BF0134B5
:100640000528F1D3B0EE480AFFF784FF0028E1D077
:100650000026E9E700000000CDCCCC3D704700004B
:1006600072B600BFFEE7000090F82020013A012A90
:1006700004D8006800F11402002004E000F1240214
:1006800001204FF480211368194311607047000066
:1006900010B590F820E0D0F800C0AEF1010EBEF128
:1006A000010FDCF808E00ED81EF0E05F11D0CEF3A9
:1006B000016E012000FA0EF018608B687BB148686B
:1006C00043EAC0030DE000F1240101204FF4802231
:1006D00023E000F1240101204FF400121DE008681E
:1006E0004305D1E9030403430CEB0E10C0F880313D
:1006F000C0F88441097D012905D100F5C2710B685C
:1007000043F480730B605168C0F88C11126800F5D7
:10071000C071C0F88821002001220B681A430A60CA
:1007200010BD0000B0B590F82020013A012A2FD862
:1007300046F20060C4F20000026842F0010202606A
:10074000026822F47C520260D1F814E0CC694A6A53
:100750000368012C43EA022202600EF01F024FF0F0
:10076000010303FA02F2C3696FEA020C23EA0203EF
:10077000C36113D02CBBC36803EA0C03C360CB680E
:100780008C8844EA034300EBCE0423640B4611E05B
:10079000416A41F4802141620120B0BDC368134326
:1007A000C3600B688C8844EA034300EBCE042364E7
:1007B00001F10C038C681B8843EA044300EBCE0470
:1007C000636443688D6943EA0204D1F810E0096A62
:1007D000002D08BF03EA0C0444604369BEF1000F1A
:1007E00043EA020408BF03EA0C040129446102D170
:1007F000C1691143C161016821F00101016000205C
:10080000B0BD00007047000010B590F82040013CDA
:10081000012C0AD8046871B12469A4070ED100F133
:10082000240101204FF4001276E000F124010120A0
:100830004FF4802270E0E468A40771D0046804EBF0
:10084000011CDCF8B0410CF5D87E14F0040494606F
:10085000DCF8B04119BFE4085460640D1460DEF8A0
:1008600000400CF5DA7E04F00204D460DCF8B441F8
:1008700024075ABFDEF8004004F00F040824146176
:10088000DEF800400029C4F307249461DEF800403C
:100890004FEA14445461DCF8B8211A70026802EB84
:1008A0000112D2F8B8214FEA12225A70026802EB04
:1008B0000112D2F8B8214FEA12429A70026802EB94
:1008C0000112D2F8B8214FEA1262DA70026802EB24
:1008D0000112D2F8BC211A71026802EB0112D2F89F
:1008E000BC214FEA12225A71026802EB0112D2F8BF
:1008F000BC214FEA12429A71026802EB0112D2F84F
:10090000BC214FEA1262DA71006814BF00F11001D5
:1009100000F10C01002020220B681A430A6010BD70
:1009200000F1240101204FF40012F5E72DE9F04F0A
:1009300081B0044600684669D0F804908768D0F812
:100940000CB0D0F810A0D0F81880F10703D1002522
:1009500030071CD423E0F90710D00121BA078160C9
:1009600009D4780700F1AA80380700F1B08020464A
:1009700000F042FA02E0204600F040FA0025F805B7
:1009800000F18480F80300F1AA80300707D51BF03E
:10099000100004D0206845F400751021C160700774
:1009A00008D51BF0080005D020680821C16020464A
:1009B00000F09EF9B00706D52068C068800702D015
:1009C000204600F097F9700607D51AF0100004D001
:1009D000206845F4806510210161B00608D51AF041
:1009E000080005D0206808210161204600F0D0F9F8
:1009F000F00606D520680069800702D0204600F086
:100A0000C9F9B00308D519F0100005D020681021ED
:100A10004160204600F0C0F9F00308D519F0080045
:100A200005D0206808214160204600F0F1F930042B
:100A300040F18F805FEA497040F1888006F4807051
:100A400008EA102028435FEA8871014648BF41F058
:100A50000201B20558BF01465FEA48700D4648BF23
:100A600045F00405700558BF0D4630056ED518F0E9
:100A700070006BD010380009052862D8DFE800F05C
:100A8000035356595C5F45F008055AE020684FF45F
:100A90008071BA0581600AD4780512D4380519D45A
:100AA000204600F0ADF9F8037FF56FAF17E0204660
:100AB00000F0A8F9F8037FF568AF10E04FF4006587
:100AC0005DE705F50055F8037FF55FAF07E04FF4EC
:100AD000805554E705F58045F8037FF556AF20684B
:100AE0004FF48031BA0381600AD478030FD43803FD
:100AF00013D4204600F088F930073FF548AF4EE7A1
:100B0000204600F083F930073FF541AF47E705F590
:100B1000004530073FF53BAF41E705F5803530072D
:100B20003FF535AF3BE745F010050AE045F02005FD
:100B300007E045F0400504E045F0800501E045F49C
:100B400080752068816921F070018161206804212D
:100B500041602DB1606A284360622046FFF752FE73
:100B600001B0BDE8F08F0000B0B5C8B1044690F800
:100B7000200010B9204600F071F82068016841F0AB
:100B80000101016000F01CFA054600BF20684168C1
:100B9000C90707D100F014FA401B0B28F6D312E066
:100BA0000120B0BD016821F00201016000F008FAE7
:100BB000054600BF2068416889070DD500F000FA9E
:100BC000401B0B28F6D3606A052140F400306062B8
:100BD000012084F82010B0BD217E0268012922F096
:100BE000800208BF80320260617E0268012922F023
:100BF000400208BF40320260A17E0268012922F053
:100C0000200208BF20320260E17E0268012922F042
:100C1000100218BF10320260217F0268012922F001
:100C2000080208BF08320260617F0268012922F0D1
:100C3000040208BF04320260D4E901C2D4E90335DA
:100C400061691A432A431143ACF101021143C161A6
:100C500000200121606284F82010B0BD80B586B00C
:100C600046F200410068C4F2000100228842059269
:100C7000CDE903220292019201D006B080BD43F675
:100C800030000092C4F20200036943F00073036174
:100C9000036903F000730093009B0092036843F024
:100CA00001030360006800F00100009000984FF419
:100CB000C05001900220CDE90202032004900920D7
:100CC000059001F5CE3001A900F0A4F8142005210B
:100CD000002200F02BFA142000F018FA152005214C
:100CE000002200F023FA152000F010FA06B080BDB3
:100CF00070470000B0B5016846F60002C4F2000279
:100D0000914214D046F20042C4F2000291420DD149
:100D100040F2880540F28004C2F20005C2F20004ED
:100D200000212A462346FFF76FFD60B1B0BD40F2B7
:100D3000880240F28003C2F20002C2F200030021E6
:100D4000FFF762FDB0BD286801280BD040F22311E7
:100D5000884218BFB0BD207840F21831C2F20001BD
:100D60000870B0BDB4F80100217840F22132C2F21F
:100D7000000200BA117040F20801000CC2F200013A
:100D8000088040F22030C2F2000001210170B0BDA5
:100D9000704700007047000070470000B0B504467F
:100DA00090F8200001281DD1022084F8200020683E
:100DB000016821F00101016000F002F9054600BF61
:100DC00020684068C00713D000F0FAF8401B0B28D9
:100DD000F6D3606A40F400306062052084F8200099
:100DE0000120B0BD606A40F4002060620120B0BD07
:100DF00000206062B0BD0000704700007047000036
:100E00007047000070470000704700007047000006
:100E1000704700002DE9F04F82B000F13E4241F6EC
:100E2000004502F1FF77C4F2020508224FEAB72617
:100E3000A84208BF0722072E38BF4FEAB7224FF05B
:100E4000010A002400274FF00009009209E000BFCA
:100E500009F101090437B9F1100F04F1020400F09F
:100E6000A6800A680AFA09FC12EA0C08F0D0D1F848
:100E700004B00BF0030AAAF10102012A12D8826819
:100E80000323CE6803FA04FE22EA0E02A640324390
:100E900082604268CBF3001622EA0C0206FA09F6D9
:100EA00032434260BAF1030F1DD0C26803238D683C
:100EB00003FA04F6B24305FA04F63243BAF1020F1C
:100EC000C26010D16FF0030202EA59020244D2F864
:100ED00020C007F01C050F230E69AB402CEA03036A
:100EE000AE4033431362026803234E68A3409A4323
:100EF00006F00303A3401A4316F4403F4FF0010AE3
:100F00000260A5D0002243F644030192C4F202031A
:100F10001A6843F6004E42F480421A601A68C4F21E
:100F2000010E02F480420192019A29F003024FF669
:100F3000084C7244CFF6FF7C52F80C3007F00C06D8
:100F40000F25B540AB43009D05FA06F6334342F842
:100F50000C30DEF808204B6842EA080643F60C4CD9
:100F6000DD0258BF22EA0806CEF80860C4F2010C80
:100F7000DCF800209D0242EA080658BF22EA080673
:100F8000CCF80060DEF804209D0342EA080658BF52
:100F900022EA0806CEF80460DEF80020DB0342EA0D
:100FA000080658BF22EA0806CEF8006050E702B0F3
:100FB000BDE8F08F002A08BF090481617047000076
:100FC00044F21450C2F200000068704740F20B0077
:100FD00044F21451C2F20000C2F2000100780A6823
:100FE000104408607047000080B543F60040C4F22A
:100FF0000200016841F400710160016841F4806100
:101000000160016841F480710160032000F0BAF8CA
:101010000F2000F005F800F055F8002080BD00001A
:10102000B0B586B0002543F644010195C4F2020133
:101030000A68044642F001020A60096801A801F04A
:10104000010101910199694600F05CF900F07AF91B
:101050004DF683614000C4F21B31A0FB01014FF04B
:10106000FF3000EB914140F24C300022C2F2000010
:10107000C4F2010240F2E733C0E90021C0E90253A3
:101080000561856100F04EFB0546C0B940F24C3069
:10109000C2F2000000F076FB054680B9192000F08E
:1010A00035F80F2C0AD819202146002200F03EF80E
:1010B00040F20C00C2F20000046000E00125284666
:1010C00006B0B0BD80B582B0002043F6400101906B
:1010D000C4F202014A6842F480424A604A6802F45B
:1010E00080420192019A00900868002240F08050EE
:1010F000086008680F2100F08050009000986FF0A1
:10110000010000F013F802B080BD0000002848BFC5
:10111000704700F01F01012202FA01F14EF20012A5
:101120004009CEF2000242F82010704710B54EF68A
:101130000C5CCEF2000CDCF80030C3F3022E8EF013
:101140000704042C28BF0424BEF103034FF0FF3E24
:101150000EFA04F438BF0023A14399400EFA03F3BA
:101160009A4300F00F03043B1143634409010C331D
:1011700000F16042B0F1FF3FC8BF02F5644319704F
:1011800010BD00004EF60C51CEF200010A684FF679
:10119000FF031A4060F30A2242F0806040F0FD70C5
:1011A000086070472DE9F041002800F08B8043F67D
:1011B0000808C4F202080446D8F8F8030D4600F007
:1011C0000700884207D288F8F853D8F8F80300F0EF
:1011D0000700A84276D12068810717D5410705D5B9
:1011E000D8F8001041F4E051C8F80010010705D507
:1011F000D8F8001041F46041C8F80010D8F8001089
:10120000A26821F0F0011143C8F80010C0073FD1D7
:10121000D8F8F80300F00700A84207D988F8F85377
:10122000D8F8F80300F00700A8424BD12068410726
:1012300007D5D8F80010E26821F4E0511143C8F84E
:101240000010000708D5D8F80000216920F460409C
:1012500040EAC100C8F8000000F088F8D8F8001093
:1012600043F61672C1F30311C0F60002515C40F25E
:10127000000220FA01F140F20C00C2F20000006806
:10128000C2F200021160FFF7CBFE0020BDE8F08142
:101290006068811E022907D258F8081C89015CBFCA
:1012A0000120BDE8F08110E0012807D158F8081CA2
:1012B00089035CBF0120BDE8F08106E058F8081CF6
:1012C000890702D40120BDE8F081D8F8001021F090
:1012D00003010843C8F80000FFF772FE064641F21A
:1012E000883700BFD8F80000616800F00C00B0EB50
:1012F000810F8DD0FFF764FE801BB842F2D9032026
:10130000BDE8F0810F22026043F60802C4F2020237
:10131000136803F003034360136803F0F003836072
:10132000136803F4E053C360D2F800C04FF4E053F5
:1013300003EADC030361D2F8F80300F00700086059
:101340007047000040F2000043F60801C2F20000BE
:10135000C4F202010068096843F62672C1F3423103
:10136000C0F60002515CC8407047000010B543F65B
:101370000404C4F20204606800F00C0008280AD0DB
:10138000042819BF42F20040C0F2F40047F64000C2
:10139000C0F27D1010BD206821682368490247F61D
:1013A0004001C0F27D1100F03F02C3F388105CBF22
:1013B00042F20041C0F2F401A1FB00010023FEF75C
:1013C00053FF21680222C1F3014102EB4101B0FB4E
:1013D000F1F010BD2DE9F04182B0002800F0A280AC
:1013E0000446007843F60006C007C4F2020643D064
:1013F000B06800F00C00042805D1306880033BD5AC
:101400006068C8BB8EE0B06800F00C00082802D10C
:1014100070684002F1D46568B5F5A02F0AD0B5F523
:10142000803F0BD0306820F480303060306820F48A
:10143000802006E0306840F480203060306840F45E
:1014400080303060FFF7BCFD002D054611D000BF95
:101450003068800310D4FFF7B3FD401B6428F7D930
:1014600022E100BFFFF7ACFD401B64284FF00300F2
:1014700055D830688003F5D4207880071AD5B06835
:1014800010F00C0F09D0B06800F00C00082840F0F4
:101490008A807068400200F186803068800702D53B
:1014A000E06801283ED13068216920F0F80040EA68
:1014B000C10030602078000738D4207840074CD431
:1014C000A5695DB3B06800F00C00082840F09E806C
:1014D000012D27D07068E16900F480028A4221D191
:1014E000216A00F03F028A421CD147F6C071626A4D
:1014F0000140B1EB821F15D1A26A0023CFF6FF7322
:1015000003EBC23200F440316FF30F02914209D174
:10151000E16A00F07060B0EB016F03D1002002B00F
:10152000BDE8F081012002B0BDE8F08160690028CB
:1015300040F20000C4F2472057D00121C0F8801EBD
:10154000FFF73EFD054600BF706F8007B5D4FFF77B
:1015500037FD401B0228F7D9A6E0306C10F0805808
:101560000AD100200190306C40F080503064306C23
:1015700000F080500190019847F20007C4F2000784
:101580003868C00524D4386840F480703860FFF7AC
:1015900017FD05463868C0051AD4FFF711FD401B3A
:1015A0000228F7D980E0E068002851D00020C4F27A
:1015B000472001210160FFF703FD054630688007E1
:1015C0003FF571AFFFF7FCFC401B0228F6D96BE03A
:1015D000A568052D50D0012D52D0306F20F00100AC
:1015E0003067306F20F004004DE00021C0F8801E0D
:1015F000FFF7E6FC054600BF706F80077FF55DAF23
:10160000FFF7DEFC401B0228F6D94DE00027C4F2AC
:10161000472700203866FFF7D3FC022D05460BD183
:101620003068800158D5FFF7CBFC401B02284FF0F3
:101630000300F5D973E700BF306880017FF56EAF16
:10164000FFF7BEFC401B02284FF00300F4D966E709
:101650000020C4F2472000210160FFF7B1FC0546DD
:10166000306880077FF526AFFFF7AAFC401B0228F1
:101670004FF00300F4D952E7306F40F004003067B8
:10168000306F40F001003067FFF79AFC002D0546EF
:1016900041F2883714D000BF306F800713D4FFF7B2
:1016A0008FFC401BB842F7D9032002B0BDE8F0819F
:1016B000FFF786FC401BB8424FF003003FF62FAF08
:1016C000306F8007F4D4B8F1000F7FF4F9AE306CBE
:1016D00020F080503064F3E604F11C052FCD084360
:1016E0000021CFF6FF7140EA821001EBC3316FF3A6
:1016F0000F0140EA05600843706001203866FFF77B
:101700005FFC0446306880013FF508AFFFF758FCE6
:10171000001B02284FF00300F4D900E770470000D7
:1017200070470000002804BF0120704710B5044630
:1017300090F83D0028B9002084F83C00204600F0D5
:101740001FF8022084F83D002068211D00F0CEFA29
:10175000012084F8460084F83E0084F83F0084F8B5
:10176000400084F8410084F8420084F8430084F883
:10177000440084F8450084F83D00002010BD0000BE
:101780007047000090F83D1001291CBF01207047F0
:10179000022180F83D10006841F2FF72C168C4F276
:1017A0000002904241F00101C1600DDC40F2FF7186
:1017B000C4F20001884215DCB0F1804F29D040F21C
:1017C0000041C4F2000122E040F2FF31C4F2010105
:1017D000884212DC41F60001C4F20001884218D0B0
:1017E000002112E040F60001C4F20001884210D04E
:1017F00040F60041C4F2000109E044F20001C4F2E5
:101800000101884205D040F20041C4F20101884242
:1018100006D1816801F00701062904BF0020704746
:10182000016841F00101016000207047704700002D
:1018300070B504460068C5680669B10716D515F08D
:10184000020113D06FF0020101610121217780694B
:10185000800703D02046FFF7E9FF05E0204600F0AF
:101860008BF8204600F08AF800202077700718D502
:1018700015F0040015D020686FF004010161022109
:101880002177806910F4407F03D02046FFF7CEFF18
:1018900005E0204600F070F8204600F06FF80020C8
:1018A0002077300717D515F0080014D020686FF0A6
:1018B0000801016104212177C069800703D0204617
:1018C000FFF7B4FF05E0204600F056F8204600F090
:1018D00055F800202077F00618D515F0100015D027
:1018E00020686FF01001016108212177C06910F4B0
:1018F000407F03D02046FFF799FF05E0204600F027
:101900003BF8204600F03AF800202077F00718BF97
:1019100015F0010002D1300609D412E020686FF002
:1019200001010161204600F02BF8300609D515F0C1
:10193000800006D020686FF0800101612046FFF72B
:10194000EDFE700609D515F0400006D020686FF056
:1019500040010161204600F01DF8B0060AD515F0DF
:10196000200008BF70BD20686FF020010161204693
:10197000FFF7D6FE70BD0000704700007047000002
:1019800080B500680021C4F20101884208BFFFF75A
:101990001DFB80BD70470000FEE7000000F0BAFBB1
:1019A00000F07CFA40F2203640F2213840F208097B
:1019B000C2F20006C2F20008C2F20009002706E0E7
:1019C00000F02CFB00F02AFA012000F0CFFB307869
:1019D0000028F5D001F07AF998F80040B9F80050E5
:1019E000377001F097F92046294600F07BFAE7E7C7
:1019F00010B58AB068462821FEF7FBFC40F224307F
:101A000046F2004140F2001EC2F20000C4F20001A2
:101A100000244FF400234FF4401CC0F2011E0322A7
:101A200080E81600C0E90343C0E905CE8483FFF7D0
:101A30009BF8002818BFFEF713FE0120CDE906042D
:101A4000202108900E20009142F26041099040F25E
:101A50002430CDE90111CDE90314C2F2000069463A
:101A60000594FEF75FFE002818BFFEF7F9FD40F26F
:101A70002430C2F20000FFF791F9002818BFFEF7EA
:101A8000EFFD40F22430C2F200000221FEF7ECFD2F
:101A9000002818BFFEF7E4FD0AB010BD80B541F67E
:101AA0009D1043F63072C0F60000C0F6000200211F
:101AB00000F09EFB40F27C01C2F20001086040F29F
:101AC000215043F65472C0F60000C0F60002002117
:101AD00000F08EFB40F20831C2F20001086040F2D3
:101AE000F55043F67872C0F60000C0F600020021FF
:101AF00000F07EFB40F21C31C2F20001086080BDA4
:101B000070B586B0002543F630000595CDE9035544
:101B1000CDE901550095C4F202000168002441F0AE
:101B2000010101600068C4F2020400F001000090AD
:101B3000009820464FF4F87100224FF4F876FFF732
:101B400039FA012002900220CDE9030501A92046BF
:101B50000196FFF75FF906B070BD0000FEE70000D8
:101B6000FEE7000000000000000000000000000090
:101B7000EFF30980BFF36F8F154B1A681EF0100F3B
:101B800008BF20ED108A20E9F04F10602DE9090010
:101B90004FF0500080F31188BFF34F8FBFF36F8F6A
:101BA00001F0FEFA4FF0000080F31188BDE8090053
:101BB00019680868B0E8F04F1EF0100F08BFB0ECCD
:101BC000108A80F30988BFF36F8F704700BF00BF92
:101BD000940400200000000000000000000000004D
:101BE000074B19680868B0E8F04F80F30988BFF325
:101BF0006F8F4FF0000080F31188704700BF00BF67
:101C00009404002080B54EF21000CEF2000000686F
:101C100001F03AFF012818BF01F0A8FB80BD0000C9
:101C200070B592B006AC20463021FEF7E2FB0025ED
:101C300043F640000595CDE90355CDE901550095E2
:101C4000C4F202000168022641F080510160006880
:101C500000F080500090009847F200000095C4F218
:101C60000000016841F480410160006800F4804098
:101C7000009000980120099010200A9008200E90F2
:101C8000A820CDE90F060420119020460696CDE944
:101C90000C65FFF79FFB10B172B600BFFEE70F2087
:101CA000CDE901064FF4A05004904FF48050059008
:101CB00001A805210395FFF775FA10B172B600BFB0
:101CC000FEE712B070BD00004EF68850CEF2000064
:101CD000016841F4700101607047000080B540F276
:101CE0004C30C2F20000FFF7A3FD80BDB0B540F656
:101CF000FF3E0568C4F2000E40F2004C7045C4F28D
:101D0000010C0FDCB0F1804F19D040F20043C4F257
:101D10000003984213D040F60003C4F20003984237
:101D20000DD011E040F60043C4F20003984206D003
:101D3000604504D00023C4F20103984204D14B68EB
:101D400025F0700243EA020541F6FF73C4F2000376
:101D500098420DDC70451FDCB0F1804F41D040F25D
:101D60000043C4F2000398423BD040F6000321E058
:101D700043F6FF73C4F20103984220DC42F20003F1
:101D8000C4F2000398422CD00023C4F2010398420D
:101D900027D0604525D029E040F60043C4F2000377
:101DA00098421ED041F60003C4F20003984218D0B6
:101DB00041F60043C4F20003984212D016E044F208
:101DC0000003C4F2010398420BD044F60003C4F2AE
:101DD0000103984205D044F20043C4F20103984243
:101DE00004D1CB6825F4407243EA02050A688C6886
:101DF0004B69C46240F480648262644504BF09692F
:101E00000163026825F0800142F004021943026078
:101E1000012242610160B0BDFEE70000B0B540F2B2
:101E2000A400C2F2000000780024012828D1FFF7A6
:101E3000C7F840F2A801C2F2000140F204020968AA
:101E4000C2F200021268401AB0FBF2F14CF6CD4328
:101E500001FB1201CCF6CC43B1EB520F28BF511A53
:101E600001EB8101A0FB033552088900B1FBF2F1BF
:101E70002A0902EB8202A0EB8200884238BF0124CB
:101E80000025C4F20205284640212246FFF792F8B9
:101E9000284680212246FFF78DF8B0BD10B540F2EC
:101EA000A400C2F200000021017040F20400C2F25E
:101EB00000004FF47A610160FFF782F840F2A80158
:101EC0000024C2F20001C4F202040860204640214E
:101ED0000022FFF76FF8204680210022FFF76AF802
:101EE00010BD000010B54FF47A62A1B1B1F5805F6A
:101EF00028BF4FF480514FF46163594340F20113FE
:101F0000A1F56161C0F21003A1FB0334091B04EBCE
:101F10005101A2EBD1220138B0FA80F040F2A404C2
:101F20004009C2F20004207040F20400C2F2000036
:101F30000260FFF745F8217840F2A802C2F20002E1
:101F40000029106018BF10BD0024C4F2020420460E
:101F500040210022FFF72EF8204680210022FFF7C3
:101F600029F810BDB0B540F21835C2F20005287846
:101F700080B340F20D34C2F20004207802280CD065
:101F8000012828D030BB40F21030C2F2000000F02F
:101F90001DFEF8B101202070B0BD40F21030C2F239
:101FA000000000F013FE002808BFB0BD0020207024
:101FB0000020C4F202004FF480710022FEF7FAFF05
:101FC000287864210138287040F21030C2F20000F5
:101FD00000F0F4FDB0BD0020C4F202004FF48071A7
:101FE0000122FEF7E7FF0220207040F21030C2F21B
:101FF0000000642100F0E2FDB0BD000010B500203B
:10200000C4F202004FF4807100220024FEF7D2FFD8
:1020100040F20C30C2F20000047010BDB0B540F2C6
:102020009430C2F200000078A8B1012820D140F21B
:102030002234C2F20004207802281AD0012848D0A5
:10204000B0B940F29830C2F2000000F0BFFD78B1A4
:1020500001202070B0BD0024C4F2020420461021EB
:102060000022FEF7A7FF204620210022FEF7A2FF54
:10207000B0BD40F29830C2F2000000F0A7FD002889
:1020800008BFB0BD40F20A05C2F200052878002161
:102090000138C2B2032A21700CD843F69C7140B2B9
:1020A000C0F6000131F810100020C4F20200002236
:1020B000FEF780FF40F29830C2F200001E2100F0CF
:1020C0007DFD28780130C1B2022988BF0120287027
:1020D000B0BD40F20A00C2F2000000780138C1B27F
:1020E00003290CD843F69C7140B2C0F6000131F8C8
:1020F00010100020C4F202000122FEF75BFF022054
:10210000207040F29830C2F200004FF4967100F057
:1021100055FDB0BD10B50024C4F2020420461021C4
:102120000022FEF747FF204620210022FEF742FF53
:1021300040F29430C2F200000121017040F2983068
:10214000C2F20000002100F039FD10BDFEF74CFF87
:10215000FFF766FDFFF7D4FCFFF74AFC00F016F826
:10216000FFF79CFC00F026F8FEE70000EFF3058186
:1021700000291CBF6FF005007047002804BF002035
:10218000704780B500F096FE002080BDEFF305801B
:1021900000281CBF6FF00500704740F27800C2F2C3
:1021A00000000168002911BF4FF0FF3001210160DC
:1021B0000020704710B5EFF3058000281CBF6FF0BA
:1021C000050010BD40F27800C2F20000016801294C
:1021D0001CBF4FF0FF3010BD4EF61F51CEF2000174
:1021E00000240C700221016000F080FF204610BD29
:1021F00070B584B08E46002100280391EFF305816D
:102200004DD000294BD122B39369002B08BF18236E
:10221000382B1BD81179C90718D1556994681168F2
:102220004FEA950C002D08BF4FF0800C44B1D668E2
:102230005C2E04D31669002E18BF002D20D10CB9D6
:10224000D468C4B10025002455B91DE0002004B0B5
:1022500070BD0124002118234FF0800C00259DB192
:10226000946812690294CDE900326246734601F027
:1022700097FB039013E01469B4FA84F46409EDE762
:1022800000240125002DEBD14CB103AC00931FFAC3
:102290008CF27346019401F015FB012802D10398DA
:1022A00004B070BD0020E4E7F0B581B00D4644F6FF
:1022B000E04140F29446C2F20001C2F200060F680B
:1022C00031680446081D00F08DFC601C0AD14DB138
:1022D0003068011D44F6B840C2F2000000F0DEFC98
:1022E00001B0F0BD3068E41944600AD340F2A44064
:1022F000C2F2000000683168043100F0B1FC01B0A6
:10230000F0BD40F29C40C2F2000000683168043128
:1023100000F0A6FC44F64440C2F2000001688C4282
:1023200038BF046001B0F0BD2DE9F047044600F06D
:10233000CDFC44F21850C2F20000016840F294470C
:1023400001310160C2F20007396844F6AC4A40F23C
:10235000AC46C2F2000AC2F2000651B1DAF800003F
:1023600000283ED13868E16AC06A884298BF3C6064
:1023700037E03C600068012833D10025701900F077
:102380005FFC1435B5F58C6FF8D144F61048C2F2F5
:102390000008404600F054FC44F62449C2F200090B
:1023A000484600F04DFC44F65840C2F2000000F0F0
:1023B00047FC44F6CC40C2F2000000F041FC44F679
:1023C000B840C2F2000000F03BFC40F29C40C2F278
:1023D0000000C0F8008040F2A440C2F20000C0F843
:1023E000009044F22450C2F2000001680131016003
:1023F000616444F22851C2F20001E06A0A68904226
:1024000088BF086000EB800006EB8000211D00F013
:1024100045FC00F07FFCDAF8000088B13868E16A1A
:10242000C06A884228BFBDE8F0874EF60450CEF25D
:1024300000004FF080510160BFF34F8FBFF36F8FEB
:10244000BDE8F08770B582B000F040FC44F6E44689
:10245000C2F20006306850BB44F6E434C2F2000415
:10246000204600F0EDFB44F6F835C2F200052846A0
:1024700000F0E6FB40F29840C2F20000046040F237
:10248000A840C2F2000040F2A03240F24043056092
:102490000025C2F20002C2F200030A2010210095BA
:1024A00000F07CFF306010B103A100F0CDFC00F023
:1024B00031FC02B070BD00BF546D725100000000CD
:1024C00044F21C5540F2AC4A4EF6045844F6CC4750
:1024D00044F21856C2F20005C2F2000ACEF2000819
:1024E0004FF08059C2F20007C2F2000603E000BFBD
:1024F000204600F027FC2868C8B100F0E7FBF86828
:10250000C468201D00F06EFB306801383060286818
:102510000138286000F0FEFB94F859000228EAD048
:102520000128E5D070B9206B00F00CFCE0E7DAF888
:1025300000000228DFD3C8F80090BFF34F8FBFF32D
:102540006F8FD8E74FF0500080F31188BFF36F8F83
:10255000BFF34F8FFEE7000008480068006880F373
:1025600008884FF0000080F3148862B661B6BFF3AC
:102570004F8FBFF36F8F00DF00BF000008ED00E05A
:102580002DE9F04F85B0824601F092FA40F2904971
:10259000C2F20009D9F800100546884249D240F23B
:1025A0009844C2F2000420680168002943D044F630
:1025B000E44BC2F2000B08E07860206831463F61CE
:1025C00000F04EFB20680168A9B3C068C768D0F866
:1025D00000803E1D304600F005FB396A38468847CA
:1025E00097F828004007EDD5B86940444045E3D846
:1025F0008FB3DBF8000078B10020CDE90108039724
:1026000001F042FADBF8000001A90022002300F0EB
:1026100033FF0028D6D102E000200028D2D14FF0AD
:10262000500080F31188BFF36F8FBFF34F8F00BF4F
:10263000FEE7002007E040F2A841C2F200010A686C
:10264000086001202260CAF800002846C9F800503E
:1026500005B0BDE8F08F4FF0500080F31188BFF354
:102660006F8FBFF34F8F00BFFEE7000081B00020E7
:10267000009040F21000C2F2000000684FF05001DC
:1026800081F31188BFF36F8FBFF34F8F013001D0FB
:10269000FEE700BF00980028FCD001B070470000A2
:1026A0008AB040F2984A40F2A84944F6E448C2F29F
:1026B000000A02ACC2F20009C2F2000801AE00BF7B
:1026C000DAF8000007681FB1C068D0F800B001E078
:1026D0004FF0000B00F05CFD2046FFF751FF029920
:1026E00011B101F035FB7DE00546AFB15D4513D377
:1026F00001F02EFBDAF80000C068C76807F1040992
:10270000484600F06FFA97F82800410707D400F018
:10271000FE0087F8280012E0B7B100221AE0B9697C
:102720003F6101EB0B00A842786029D95D4501D2D9
:10273000584533D2DAF80000494600F091FA40F2E9
:10274000A849C2F2000945E0D9F800000068B0FAD3
:1027500080F04209D8F80000ABEB050100F088FBDF
:1027600001F0F6FA00283DD14EF60450CEF20000FA
:102770004FF080510160BFF34F8FBFF36F8F31E097
:10278000A5EB0B00884209D240F2A842C2F2000237
:1027900010684946914600F063FA1BE0002F00F0F4
:1027A000C680D8F8000068B10020CDE9060B089774
:1027B00001F06AF9D8F8000006A90022002300F011
:1027C0005BFE00E0002040F2A849C2F200090028A8
:1027D00000F0B780396A3846884703E0D9F800002E
:1027E00000F03EFAD8F800002146002200F04EFF2B
:1027F00000283FF465AF0298B0F1FF3F03DCDDE94C
:1028000003200599904702980028EBD4049F78692B
:1028100010B1381D00F0E6F93046FFF7B1FE02991D
:102820000929DFD8DFE801F00505053B3E54050521
:102830003B3E97F82810039ABD6941F0010187F8E3
:102840002810AB18394641F8043F83423F6104D950
:10285000904238D2934203D235E0801AA842BDD3C9
:10286000396A3846884797F828004007BAD5002FBC
:1028700053D0D8F80000C0B30398B969089708444A
:102880000021CDE9061001F0FFF8D8F8000006A9F4
:102890000022002300F0F0FD0028A3D129E097F8E2
:1028A00028001DE097F8281041F00102039987F8ED
:1028B0002820B96139B30A18394641F8042F8242F9
:1028C0003F617FF68BAFDAF8000000F0C9F989E7C5
:1028D00097F82800810703D4384600F033FA81E7DF
:1028E00000F0FE0087F828007CE7002000287FF435
:1028F00079AF4FF0500080F31188BFF36F8FBFF3B3
:102900004F8F00BFFEE74FF0500080F31188BFF3F8
:102910006F8FBFF34F8F00BFFEE74FF0500080F383
:102920001188BFF36F8FBFF34F8F00BFFEE74FF0EB
:10293000500080F31188BFF36F8FBFF34F8F00BF3C
:10294000FEE74FF0500080F31188BFF36F8FBFF3A5
:102950004F8F00BFFEE70000F0B581B0044600F0E5
:10296000B5F994F94560012E0FDB04F1240500BF91
:10297000286850B1284601F0A3F9002818BF00F0DC
:1029800073FB70B2013E0128F2DCFF2684F845603B
:1029900000F0C0F900F09AF994F94470012F0EDBB1
:1029A00004F11005286850B1284601F089F9002883
:1029B00018BF00F059FB78B2013F0128F2DC84F81F
:1029C000446000F0A7F901B0F0BD0000F0B581B09F
:1029D000044600F0DDFB40F2A041C2F200010868AD
:1029E00044F60C47C2F2000780BB40F60C12C2F25C
:1029F0000002D61D26F0070612F00703A2EB06051B
:102A000018BF324644F6B046C2F200060020C6E9BE
:102A100000204FF47056002B18BF05F5705693191F
:102A2000083B23F007030B60C3E90000981A0B680A
:102A3000C2E9003044F64042C2F20002106044F69F
:102A40003842C2F200021060012038703878002845
:102A500018BF4FF0004020420DD0002401F078F95B
:102A6000600712D04FF0500080F31188BFF36F8FD2
:102A7000BFF34F8FFEE75CB160071ABF04F110008F
:102A800020F0070304F1080303E0204601B0F0BD85
:102A90000023002B4FF00004E0D044F6384CC2F283
:102AA000000CDCF800008342D8D844F6B044C2F2EF
:102AB0000004266875689D420FD232684AB100BF93
:102AC0005568344616469D4207D23268002AF7D12F
:102AD00003E044F6B044C2F2000408688642BCD069
:102AE000D4F800E03068EA1A112A20602FD3F418D5
:102AF000600708D04FF0500080F31188BFF36F8F4C
:102B0000BFF34F8FFEE744F6B045C2F200056260A6
:102B1000736000BF2B462D68A542FBD35A689818F6
:102B2000A04203D160681C46104458606268A01837
:102B3000A84201D0294606E009688D4203D0D5E9B4
:102B4000001010446060A342216018BF1C6044F66E
:102B500040417068DCF80020C2F200010B68121AD4
:102B60009A42CCF8002038BF0A6038787168002893
:102B70004FF0000018BF41F00041306044F64C4077
:102B8000C2F2000002680EF108047160511C01607D
:102B900064E70000034642F26D60C0F600004FF0AB
:102BA000807C21F0010103E903106FF0020043F87B
:102BB000240CA3F1440043F8202C7047B0B50C4618
:102BC0000546FEF7FDF9C5E90004B0BD10B50446A1
:102BD000FEF7F6F9D4E90012411A0020914228BF0D
:102BE000012010BDD0E9013201699A60D1F804C01A
:102BF00082688445536008BF4A6000220261086809
:102C0000013808600868704744F22C73C2F2000370
:102C1000036044F22C50C2F2000008608020106073
:102C20007047000044F68833C2F20003036044F2A8
:102C30008870C2F2000008604FF480701060704726
:102C40004FF0FF31024642F8081F00214260C0E900
:102C500003220160704700000021016170470000FD
:102C600080B5D1F800C01CF1010207D000F10803C3
:102C70009E465B681A686245FAD901E0D0F810E018
:102C8000DEF8042008614A609160C1F808E0CEF8DF
:102C9000041001680131016080BD0000D0F800C05F
:102CA000436808619A684B608A609A6899605160CD
:102CB0000CF1010101607047DFF80C00016841F47C
:102CC000700101607047000088ED00E04FF0500097
:102CD00080F31188BFF36F8FBFF34F8F40F2100066
:102CE000C2F2000001684A1C026001B170474EF652
:102CF0000450CEF200000068000608BF70474FF095
:102D0000500080F31188BFF36F8FBFF34F8F00BF68
:102D1000FEE7000040F21000C2F20000016839B185
:102D20000139016018BF7047002080F31188704797
:102D30004FF0500080F31188BFF36F8FBFF34F8FB8
:102D4000FEE70000B0B5002808BFB0BD044644F659
:102D50000C40C2F20000007854F8041C002818BF90
:102D60004FF0004008420CD0A4F108052A6892B147
:102D70004FF0500080F31188BFF36F8FBFF34F8F78
:102D8000FEE74FF0500080F31188BFF36F8FBFF361
:102D90004F8F00BFFEE721EA000044F8040C00F06A
:102DA000F7F944F63841C2F2000154F8040C0A68FD
:102DB0001044086044F6B041C2F2000108460968B8
:102DC000A942FBD342688318AB4204D154F8043CB7
:102DD00005461A4442606A68AB188B4201D00B4624
:102DE0000AE040F2A043C2F200031B68994203D0FC
:102DF000D1E90034A1186960A8422B6018BF0560B2
:102E000044F65040C2F2000001680131016000F058
:102E10009FFFB0BD4EF21000CEF200000021016015
:102E2000816040F20001C2F20001096844F6D35209
:102E3000C1F26202A1FB02124FF0FF3101EB9211CD
:102E4000416007210160704744F66C4C0022C2F2D9
:102E5000000C00BF5CF8323023B10132082A08BFF1
:102E60007047F7E70CEBC2034CF83210586070471C
:102E700070B515460E460446FFF728FF94F8440047
:102E8000FF2804BF002084F8440094F84500FF2880
:102E900004BF002084F84500FFF73CFFA06B28B971
:102EA00004F1240031462A4600F000F92046FFF7DD
:102EB00053FD70BD70B5002843D0044644F2205045
:102EC000C2F20000016841B14FF0500080F3118858
:102ED000BFF36F8FBFF34F8FFEE7016840F2944559
:102EE0000131016044F6E040C2F20000C2F2000588
:102EF000066828680430FFF775FE2868A419446046
:102F000009D340F2A440C2F20000006829680431ED
:102F1000FFF7A6FE10E040F29C40C2F200000068FD
:102F200029680431FFF79CFE44F64440C2F20000D9
:102F300001688C4238BF046000F00AFF002818BF07
:102F400070BD4EF60450CEF200004FF0805101608B
:102F5000BFF34F8FBFF36F8F70BD000070B580B1AE
:102F6000C9B144F22052C2F200021368EBB14FF033
:102F7000500080F31188BFF36F8FBFF34F8F00BFF6
:102F8000FEE74FF0500080F31188BFF36F8FBFF35F
:102F90004F8F00BFFEE74FF0500080F31188BFF362
:102FA0006F8FBFF34F8F00BFFEE7136801331360CD
:102FB00044F6E043C2F200031A680568AA422944B5
:102FC00002D2A94202D31CE0A94201D3914218D9EE
:102FD00040F294450160C2F200051C6828688E1A10
:102FE0000430FFF7FFFD2868A41944600BD340F2BA
:102FF000A440C2F20000006829680431FFF730FEE7
:1030000012E0016010E040F29C40C2F20000006853
:1030100029680431FFF724FE44F64440C2F2000060
:1030200001688C4238BF046000F092FE002818BF8F
:1030300070BD4EF60450CEF200004FF0805101609A
:10304000BFF34F8FBFF36F8F70BD000044F6484150
:10305000C2F200010968016044F6E041C2F20001D9
:10306000096841607047000044F6EC40C2F200007D
:10307000012101607047000010B568B10C4640F2B4
:103080009441C2F2000109681831FFF7E9FD2046BA
:103090000121FFF709F910BD4FF0500080F31188AE
:1030A000BFF36F8FBFF34F8FFEE70000B0B590B155
:1030B0000D4640F29441C2F20001096814461831ED
:1030C000FFF7ECFD002C18BF4FF0FF3528462146D6
:1030D000FFF7EAF8B0BD4FF0500080F31188BFF35E
:1030E0006F8FBFF34F8F00BFFEE7000010B586B0B3
:1030F000002405A804A903AACDE90444FFF784FD30
:10310000DDE9032005990023CDE9010142F2C14028
:10311000C0F600001CA1009400F042FC44F63C41C3
:10312000C2F20001086010B100F0AEFE0446601C5F
:1031300020D0012C1CD14FF0500080F31188BFF338
:103140006F8FBFF34F8F44F64440C2F200004FF040
:10315000FF31016044F6AC40C2F200000121016081
:1031600044F6E040C2F200000021016000F066F881
:1031700006B010BD4FF0500080F31188BFF36F8F81
:10318000BFF34F8FFEE700BF49444C4500000000ED
:1031900044F22050C2F20000016801310160704722
:1031A00044F22050C2F20000006830B144F6EC4016
:1031B000C2F2000001210160704744F6EC40C2F207
:1031C0000000002144F2285C0160C2F2000CDCF82F
:1031D000001040F2AC4201EB8103C2F2000252F84F
:1031E000230048B902EB8300A0F11403D9B153F8CE
:1031F000140901390028F9D001EB810002EB8002AB
:1032000052F8040F4368101D8342136001D15868BF
:103210001060106840F29442C068C2F20002106070
:10322000CCF8001070474FF0500080F31188BFF3C6
:103230006F8FBFF34F8F00BFFEE70000B0B584B0C3
:103240004EF20040CEF200004CF27021C4F20F1199
:10325000D0F800294B1C9A4209D14FF0500080F35E
:103260001188BFF36F8FBFF34F8F00BFFEE7D0F819
:1032700000298A4209D14FF0500080F31188BFF332
:103280006F8FBFF34F8F00BFFEE7017844F20C52FF
:103290000291FF2101700178C2F200028DF807103F
:1032A0009DF8071001F05001117044F21051C2F264
:1032B000000107220A609DF90720B2F1FF3F0BDCF5
:1032C0000A68013A0A609DF8072052008DF807202D
:1032D0009DF90720002AF3D40A68032A3CD14FF451
:1032E000E06303EA02220A6002990170D0F8201913
:1032F00041F47001C0F82019D0F8201941F0704154
:10330000C0F82019FFF786FD40F21004C2F2000455
:1033100000252560FFF7D0FC4EF63470CEF2000099
:10332000016841F040410160FFF716F9FFF738FFEF
:10333000039520684FF0500181F31188BFF36F8F20
:10334000BFF34F8F013001D0FEE700BF0398002884
:10335000FCD0002004B0B0BD4FF0500080F31188C5
:10336000BFF36F8FBFF34F8FFEE7000080B54FF0C4
:10337000500080F31188BFF36F8FBFF34F8F00F0C1
:103380009DFB30B14EF60450CEF200004FF080515C
:103390000160002080F3118880BD000070B582B00C
:1033A00068B11C46ABB1F1B9EAB14FF0500080F3FF
:1033B0001188BFF36F8FBFF34F8F00BFFEE74FF051
:1033C000500080F31188BFF36F8FBFF34F8F00BFA2
:1033D000FEE74FF0500080F31188BFF36F8FBFF30B
:1033E0004F8F00BFFEE751B14AB94FF0500080F354
:1033F0001188BFF36F8FBFF34F8F00BFFEE75023DD
:103400000193019B502B2DD1019B069E0123002986
:1034100084F8463014BF22602460C4E90F01FFF72E
:1034200055FC2068D4E90F12002502FB0103013985
:1034300001FB0201A563C4E90103FF20E16084F8F8
:10344000440084F8450004F11000FFF7F9FB04F193
:103450002400FFF7F5FBFFF75DFC204684F84C6085
:1034600002B070BD4FF0500080F31188BFF36F8F32
:10347000BFF34F8FFEE700002DE9F04F83B00292BB
:10348000B8B11D460E460446E9B1022D03D1E06BEA
:10349000012840F0A68000F0F7FA00BB0298F0B1D6
:1034A0004FF0500080F31188BFF36F8FBFF34F8F41
:1034B000FEE74FF0500080F31188BFF36F8FBFF32A
:1034C0004F8F00BFFEE7206C0028DED04FF0500089
:1034D00080F31188BFF36F8FBFF34F8FFEE7FFF7C5
:1034E000F5FBA06B022D5ED0E16B88425BD304F14B
:1034F000100801206F460DF1080900BF029900294C
:1035000000F08280C00702D03846FFF79FFDFFF72A
:1035100001FCFFF73DFEFFF7D9FB94F84400FF28BC
:1035200004BF002084F8440094F84500FF2804BF3D
:10353000002084F84500FFF7EDFB3846494600F0CF
:1035400079F9002863D1FFF7C1FBD4F838A0D4F88B
:103550003CB0FFF7DFFBDA4516D102994046FFF792
:103560008BFD2046FFF7F8F900F0F2FB88B94EF624
:103570000450CEF200004FF080510160BFF34F8F36
:10358000BFF36F8F05E000BF2046FFF7E5F900F0BD
:10359000DFFBFFF79BFBA06B022D04D0E16B8842A1
:1035A0004FF00000AAD2A76B226C22B3C5B3E0682B
:1035B0003146FCF7D1FEE168206C2268091A91427D
:1035C000E16003D2A16840420844E060A81EB0FA5E
:1035D00080F040093946002F18BF012108403F1AEA
:1035E0002BE04FF0500080F31188BFF36F8FBFF3D3
:1035F0004F8F00BFFEE720680025F8B9A06800F0F3
:1036000015FBA560054619E0FFF784FB04E02046A2
:10361000FFF7A2F900F09CFB002003B0BDE8F08F9B
:1036200060683146FCF798FE216CD4E90102084439
:103630009042606001D3206860600025781CA06320
:1036400054F8240F78B1204600F03AFBB8B14EF69A
:103650000450CEF200004FF080510160BFF34F8F55
:10366000BFF36F8F0BE055B14EF60450CEF2000061
:103670004FF080510160BFF34F8FBFF36F8FFFF7A3
:1036800049FB012003B0BDE8F08F00002DE9F04FA9
:1036900085B0049298B10C460546002900F0B78029
:1036A00000F0F2F9A8B9049898B14FF0500080F3F7
:1036B0001188BFF36F8FBFF34F8F00BFFEE74FF04E
:1036C000500080F31188BFF36F8FBFF34F8F00BF9F
:1036D000FEE705F11000019005F1240000900DF1C6
:1036E00008090DF1100A4FF000080CE02846FFF71A
:1036F00033F900F02DFBFFF7E9FAAF6BFFF70AFB98
:10370000002F00F09280FFF7E1FAD5F838B0BBF156
:10371000000F27D02A6C5AB1D5E902101044E86096
:10372000884224BF2868E860E9682046FCF714FE58
:10373000ABF10100A863286970B1019800F0C0FAEC
:1037400050B14EF60450CEF200004FF080510160AF
:10375000BFF34F8FBFF36F8FFFF7DCFA0020012616
:10376000A0B963E0049850B1B8F1000F02D1484607
:10377000FFF76CFC4FF00108012038B956E0FFF765
:10378000C9FA00260020002850D000BFFFF7C2FA77
:10379000FFF7FEFCFFF79AFA95F84400FF2804BFF4
:1037A000002085F8440095F84500FF2804BF00205C
:1037B00085F84500FFF7AEFA4846514600F03AF862
:1037C00000287FF493AFFFF781FAAF6BFFF7A2FAFF
:1037D0002FB12846FFF7C0F800F0BAFA93E7049932
:1037E0000098FFF749FC2846FFF7B6F800F0B0FA5A
:1037F00000287FF488AF4EF60450CEF200004FF060
:1038000080510160BFF34F8FBFF36F8F7BE7286C50
:1038100000283FF445AF4FF0500080F31188BFF30C
:103820006F8FBFF34F8F00BFFEE70026304605B015
:10383000BDE8F08F70B5D8B10D4611B30446FFF75F
:1038400045FA44F6E04EC2F2000EDEF80020296888
:103850004B1C20D044F6484CC2F2000CD4E90003C3
:10386000DCF80060864218D09A4216D3012424E086
:103870004FF0500080F31188BFF36F8FBFF34F8F6D
:10388000FEE74FF0500080F31188BFF36F8FBFF356
:103890004F8F00BFFEE700240FE0D21A914209D9F2
:1038A000881A2860DCF800002060DEF80000606004
:1038B000002402E0002001242860FFF72BFA2046B4
:1038C00070BD00002DE9F04F81B09500814628467B
:1038D000984692460F46FFF779F878B104465C2087
:1038E000FFF774F838B10646046356B94FF0FF305D
:1038F00001B0BDE8F08F2046FFF724FA0026002E25
:10390000F4D0306B4C46DDF828B04FF00009294662
:10391000A52286F85990FCF764FD306B00EB8A0015
:10392000A0F1040020F0070A77B106F1340000216D
:103930007A5C42547A5C1AB10F2901F10101F7D384
:10394000002086F8430001E086F834900025301D01
:10395000BBF1370F28BF4FF0370BC6F82CB0C6E9C4
:1039600013B5FFF779F906F11800FFF775F9CBF1F8
:103970003800B06150462146424636617662756530
:1039800086F85850FFF706F90B9930603046002949
:1039900018BF0E60FEF7C8FC012001B0BDE8F08F33
:1039A0002DE9F04381B01746099A2AB30A9D65B301
:1039B00081465C20009000985C2830D1009802205D
:1039C0000C46089E2A6385F85900B9001046A522C6
:1039D0009846FCF706FD286B5CB305F13401002224
:1039E000A35C8B54A35C1BB10F2A02F10102F7D335
:1039F000002185F843101FE04FF0500080F311883C
:103A0000BFF36F8FBFF34F8FFEE74FF0500080F38F
:103A10001188BFF36F8FBFF34F8F00BFFEE74FF0EA
:103A2000500080F31188BFF36F8FBFF34F8F00BF3B
:103A3000FEE7002185F8341000EB8700043820F001
:103A400007040027281D372E28BF3726EE62C5E958
:103A50001367FFF701F905F11800FFF7FDF8C6F14C
:103A60003800A8612046494642462D616D626F6567
:103A700085F85870FFF78EF828602846FEF754FC4A
:103A8000284601B0BDE8F08344F6AC40C2F2000025
:103A90000068002804BF0120704744F22050C2F2A1
:103AA00000000068B0FA80F0400940007047000054
:103AB00044F6E040C2F20000006870472DE9F04F84
:103AC00081B044F22050C2F20000006840B144F6D8
:103AD0005440C2F200000168002401310160A0E0FE
:103AE00044F6E040C2F2000001684E1C06602ED38E
:103AF00040F29C40C2F200000168096849B14FF0F1
:103B0000500080F31188BFF36F8FBFF34F8F00BF5A
:103B1000FEE740F2A442C2F20002016813680360AB
:103B2000116044F64841C2F200010A6801320A609D
:103B30000168096821B10068C068C068406801E098
:103B40004FF0FF3044F64441C2F20001086044F6F1
:103B50004441C2F20001086840F2944A40F2AC4885
:103B60008642C2F2000AC2F2000801D2002446E0F6
:103B700040F29C47C2F20007386800240068A0B3F6
:103B800044F2285BC2F2000B1AE000BFD9F82C0007
:103B9000DBF80010884288BFCBF8000000EB800003
:103BA00008EB80002946FFF779F8D9F82C00DAF8FD
:103BB0000010C96A3A68884228BF01241068B8B169
:103BC0003868C068D0F80C904D4655F8040F86420E
:103BD00010D32846FFF706F8D9F828000028D5D0DA
:103BE00009F11800FEF7FEFFD0E74FF0FF3005E0C7
:103BF0004FF0FF3044F64441C2F200010860DAF8A9
:103C00000000C06A00EB800058F82000012844F64C
:103C1000EC40C2F2000088BF01240068002818BFF1
:103C20000124204601B0BDE8F08F0000B0B580B19E
:103C3000044640F29440C2F200000068A0420AD05C
:103C40004FF0500080F31188BFF36F8FBFF34F8F99
:103C5000FEE70020B0BD206D38B3411EE06AE26C83
:103C6000216590424FF0000008BFB0BDE1B9251DAD
:103C70002846FEF7B7FFE06CC0F13801A16144F2BD
:103C80002851E062C2F200010A68904288BF0860D1
:103C900040F2AC4100EB8000C2F2000101EB800079
:103CA0002946FEF7FBFF0120B0BD4FF0500080F326
:103CB0001188BFF36F8FBFF34F8F00BFFEE7000087
:103CC000B0B5C068C5687DB105F118042046FEF79F
:103CD00089FF44F22050C2F20000006868B144F647
:103CE0005840C2F200001DE04FF0500080F31188F0
:103CF000BFF36F8FBFF34F8FFEE72C1D2046FEF7FB
:103D000071FF44F22851C2F20001E86A0A68904249
:103D100088BF086040F2AC4100EB8000C2F20001B5
:103D200001EB80002146FEF7B9FF40F29441C2F258
:103D30000001E86A0968C96A884291BF002044F618
:103D4000EC41C2F20001012088BF0860B0BD000054
:103D50002DE9F04F81B044F22054C2F200042068F3
:103D600068B1FEF7B3FF206801382060206880B199
:103D70000024FEF7CFFF204601B0BDE8F08F4FF0E2
:103D8000500080F31188BFF36F8FBFF34F8F00BFD8
:103D9000FEE744F21850C2F200000068002847D045
:103DA00044F65846C2F20006306844F6EC48002853
:103DB000C2F2000845D044F2285740F2AC4940F224
:103DC000944BC2F20007C2F20009C2F2000B4FF09E
:103DD000010A00BFF068C56805F11800FEF702FF90
:103DE0002C1D2046FEF7FEFEE86A3968884288BF2F
:103DF000386000EB800009EB80002146FEF74EFFA3
:103E0000E86ADBF80010C96A884228BFC8F800A039
:103E100030680028DED1A5B140F29C40C2F200001B
:103E20000168096831B10068C068C068406803E093
:103E300000249EE74FF0FF3044F64441C2F20001F7
:103E4000086044F65444C2F20004256855B10126C6
:103E5000FFF734FE002818BFC8F80060013DF7D115
:103E600000202060D8F8000060B14EF60450CEF279
:103E700000004FF080510160BFF34F8F0124BFF36A
:103E80006F8F76E7002474E780B586B0FEF7DAFA24
:103E900044F6E440C2F20000006808B30020CDE917
:103EA000040005A804A903AAFEF7BCFEDDE903206F
:103EB0000221DDF814C0CDE9001042F2A160C0F685
:103EC00000000CA10023CDF808C0FFF769FD44F6FF
:103ED000E841C2F20001086010B1012006B080BDC7
:103EE0004FF0500080F31188BFF36F8FBFF34F8FF7
:103EF000FEE700BF546D722053766300F1EE100AA6
:103F00004FF6FF71C0F2C03120EA010040F040706E
:103F1000E1EE100A704700000000000000000102FE
:103F20000304060708090000000001020304000062
:103F3000A43F000800000000000000000000000096
:103F40000000000000020000180000000000000057
:103F500000000000AC3F000800000000AC020020A0
:103F60005C000000AC00002000020000080000001F
:103F70000000000000000000B73F00080000000043
:103F8000000000000000000000000000000200002F
:103F900018000000000000000000000010002000D9
:103FA000400080004C45445461736B0062757A7A1E
:103FB00065725461736B0063616E54785461736B06
:103FC00000000000E83F000800000020180000008A
:103FD000C40100080040000818000020D85200006A
:103FE000E0010008000000000024F400A00F000021
:103FF0000100010110000000AAAAAAAA0000000006
:040000050800018965
:00000001FF
